:100000000C945B000C9483000C9483000C9483008C
:100010000C9483000C9483000C9483000C94830054
:100020000C9483000C9483000C9483000C94830044
:100030000C9483000C9483000C9483000C94830034
:100040000C9454020C9483000C94D5040C948300FB
:100050000C9483000C9483000C9483000C94830014
:100060000C9483000C948300000024272A000025B0
:10007000282B000023262904040404040404040299
:100080000202020202030303030303010204081035
:100090002040800102040810200102040810200002
:1000A0000000070002010000030406000000000039
:1000B00000000000AC0011241FBECFEFD4E0DEBF73
:1000C000CDBF11E0A0E0B1E0E0E0FDE002C00590AE
:1000D0000D92AE30B107D9F711E0AEE0B1E001C04A
:1000E0001D92A43AB107E1F710E0C6EBD0E004C0DE
:1000F0002297FE010E947A06C43BD107C9F70E94ED
:10010000A5000C947E060C9400000E94BC05089586
:100110000E941205089580E00E943403BC0182E130
:1001200091E00E942402089540E855E260E070E00A
:1001300082E191E00E94C00081E090E00E941205FF
:1001400080930E0190930F0108950E94F7020E9480
:1001500094000E948B00FDCF84E091E09093130106
:10016000809312010895862F0E94940408950E949E
:10017000CC0408950E94AD0408950E949C04089543
:10018000CB01BA010E945B040895DC01ED91FC9162
:100190000190F081E02D09950895DC01ED91FC912D
:1001A0000190F081E02D099508950F931F93CF934F
:1001B000DF938C01EB0109C02196D801ED91FC91F0
:1001C0000190F081E02DC801099568816623A1F7AF
:1001D000DF91CF911F910F9108950F931F938C0181
:1001E000DC01ED91FC910190F081E02D6DE009952D
:1001F000D801ED91FC910190F081E02D6AE0C801F9
:1002000009951F910F9108950F931F938C01DC01A5
:10021000ED91FC910190F081E02D0995C8010E94BB
:10022000ED001F910F9108950F931F938C010E9471
:10023000D500C8010E94ED001F910F9108950F9302
:100240001F938C01DC01ED91FC910190F081E02D78
:100250000995C8010E94ED001F910F9108952F92FA
:100260003F924F925F926F927F928F929F92AF9246
:10027000BF92CF92DF92EF92FF920F931F93DF9383
:10028000CF93CDB7DEB7A0970FB6F894DEBF0FBE01
:10029000CDBF1C016A017B01411551056105710546
:1002A00049F4DC01ED91FC910190F081E02D60E3D7
:1002B000099554C0882499245401422E552466245B
:1002C000772401E010E00C0F1D1F080D191DC70158
:1002D000B601A30192010E942706F80160830894E9
:1002E000811C911CA11CB11CC701B601A301920184
:1002F0000E942706C901DA016C017D01C114D104F5
:10030000E104F104F1F681E0E82EF12CEC0EFD1E83
:10031000E80CF91C3E010894611C711CD501C40154
:100320000197A109B1096C01C818D90814C0F601D8
:10033000EE0DFF1D60816A3010F4605D01C0695CE4
:10034000D101ED91FC910190F081E02DC101099561
:100350000894E108F1086E147F0449F7A0960FB6DF
:10036000F894DEBF0FBECDBFCF91DF911F910F91EB
:10037000FF90EF90DF90CF90BF90AF909F908F90C5
:100380007F906F905F904F903F902F9008952AE05C
:100390000E942F0108950F931F938C010E94C701A3
:1003A000C8010E94ED001F910F910895AB0160E01C
:1003B00070E00E94C70108950F931F938C01AB0159
:1003C00060E070E00E94C701C8010E94ED001F912B
:1003D0000F910895EF92FF920F931F93CF93DF93A6
:1003E000EC017A018B0177FF0FC0E881F981019060
:1003F000F081E02D6DE2099510950095F094E09460
:10040000E11CF11C011D111D2AE0B801A701CE015C
:100410000E942F01DF91CF911F910F91FF90EF90DC
:1004200008950F931F938C010E94EA01C8010E9456
:10043000ED001F910F910895AB01662757FD609560
:10044000762F0E94EA0108950F931F938C01AB0150
:10045000662757FD6095762F0E94EA01C8010E9429
:10046000ED001F910F910895DC012115310541F434
:10047000ED91FC910190F081E02D642F0995089594
:100480002A30310519F40E94EA0108950E942F01D3
:1004900008950F931F938C010E943402C8010E949B
:1004A000ED001F910F9108951F920F920FB60F92BA
:1004B00011242F938F939F93AF93BF938091140137
:1004C00090911501A0911601B09117018050904CA8
:1004D000AF4FBF4F8093140190931501A093160165
:1004E000B093170127C08091140190911501A0913C
:1004F0001601B091170180589E43A040B0408093F0
:10050000140190931501A0931601B09317018091E7
:10051000180190911901A0911A01B0911B01019647
:10052000A11DB11D8093180190931901A0931A0188
:10053000B0931B018091140190911501A0911601B7
:10054000B091170181589E43A040B04060F6BF9122
:10055000AF919F918F912F910F900FBE0F901F9091
:1005600018958FB7F8942091180130911901409196
:100570001A0150911B018FBFB901CA010895EF9272
:10058000FF920F931F937B018C018FB7F8944091DA
:1005900018015091190160911A0170911B018FBFD0
:1005A0002FB7F8948091180190911901A0911A0128
:1005B000B0911B012FBF841B950BA60BB70B8E159B
:1005C0009F05A007B10760F31F910F91FF90EF9077
:1005D0000895019759F0FC01EE0FFF1FEE0FFF1F6A
:1005E00032978FB7F8943197F1F78FBF08957894C9
:1005F00084B5826084BD84B5816084BD85B5826028
:1006000085BD85B5816085BDEEE6F0E080818160C5
:100610008083E1E8F0E08081826080838081816076
:100620008083E0E8F0E0808181608083E1EBF0E0AE
:10063000808184608083E0EBF0E080818160808352
:10064000EAE7F0E08081846080838081826080833B
:100650008081816080838081806880831092C10066
:1006600008958093060108958F70909106019295E8
:10067000990F990F907C982B90937C0080917A0031
:10068000806480937A0080917A0086FDFCCF20916F
:10069000780040917900942F80E030E0282B392BAE
:1006A000C90108951F93CF93DF93182FEB0161E0E9
:1006B0000E94A603E12FF0E0E156FF4F84918330C2
:1006C00051F480918000806880938000D0938900ED
:1006D000C093880037C0843051F4809180008062DC
:1006E00080938000D0938B00C0938A002BC0813010
:1006F00029F484B5806884BDC7BD24C0823029F444
:1007000084B5806284BDC8BD1DC0863041F480912F
:10071000B00080688093B000C093B30013C08730EE
:1007200041F48091B00080628093B000C093B40027
:1007300009C0C038D10514F460E001C061E0812F28
:100740000E94C403DF91CF911F910895282F30E0BC
:10075000C90185579F4FFC01949129583F4FF901DA
:100760008491882381F0E82FF0E0E859FF4FE4916D
:10077000F0E0662329F48081909589238083089591
:100780008081892B80830895482F50E0CA018156CB
:100790009F4FFC012491CA0185579F4FFC01949102
:1007A00049585F4FFA0134913323C1F1222331F1CB
:1007B000233021F4809180008F7705C0243031F4FC
:1007C000809180008F7D8093800018C0213019F4C3
:1007D00084B58F7704C0223021F484B58F7D84BD29
:1007E0000DC0263021F48091B0008F7705C02730EE
:1007F00029F48091B0008F7D8093B000E32FF0E06A
:10080000E359FF4FE491F0E0662329F4808190954D
:100810008923808308958081892B80830895482FC0
:1008200050E0CA0181569F4FFC012491CA018557AF
:100830009F4FFC01949149585F4FFA013491332343
:1008400019F420E030E035C0222331F1233021F4C7
:10085000809180008F7705C0243031F48091800032
:100860008F7D8093800018C0213019F484B58F7774
:1008700004C0223021F484B58F7D84BD0DC02630A4
:1008800021F48091B0008F7705C0273029F4809142
:10089000B0008F7D8093B000E32FF0E0EE58FF4F63
:1008A000E491F0E0808120E030E0892311F021E044
:1008B00030E0C9010895EF92FF920F931F937B01DF
:1008C0008C0122E030E040E050E00E944906205CCC
:1008D0003D4B404F5F4FCA01B901A80197010E94EB
:1008E0004906C901DA010197A109B109292F3A2F57
:1008F0004B2F552747FD5A950196A11DB11D2093F9
:10090000C50081508093C400E1ECF0E080818061FB
:1009100080838081886080838081806880831F914C
:100920000F91FF90EF900895982F8091C00085FF60
:10093000FCCF9093C600089580911C0190911D01F9
:1009400080589F4F20911E0130911F01821B930BF5
:1009500060E870E00E941406089540911E015091D5
:100960001F0180911C0190911D018417950719F4B6
:100970002FEF3FEF0FC0FA01E05EFE4F2081CA016A
:10098000019660E870E00E94140690931F01809326
:100990001E0130E0C901089580911E0190911F0150
:1009A00090931D0180931C0108951F920F920FB622
:1009B0000F9211242F933F934F935F936F937F93E5
:1009C0008F939F93AF93BF93EF93FF934091C60094
:1009D000E0911C01F0911D01CF01019660E870E0EB
:1009E0000E9414069C0180911E0190911F012817FE
:1009F000390739F0E05EFE4F408330931D012093AC
:100A00001C01FF91EF91BF91AF919F918F917F91C9
:100A10006F915F914F913F912F910F900FBE0F906B
:100A20001F901895CF93DF93BC018230910510F48D
:100A300062E070E0A091A201B091A301ED01E0E0BD
:100A4000F0E040E050E021C0888199818617970747
:100A500069F48A819B81309719F09383828304C063
:100A60009093A3018093A201FE0134C06817790717
:100A700038F44115510519F08417950708F4AC01B5
:100A8000FE018A819B819C01E9012097E9F64115CD
:100A90005105A9F1CA01861B970B049708F4BA0106
:100AA000E0E0F0E02AC08D919C91119784179507A2
:100AB000F9F46417750781F412968D919C91139740
:100AC000309719F09383828304C09093A30180939D
:100AD000A201FD0132964CC0CA01861B970BFD0195
:100AE000E80FF91F6193719302978D939C9340C017
:100AF000FD01828193819C01D9011097A1F680911B
:100B0000A0019091A101892B41F48091090190915C
:100B10000A019093A1018093A00140910B01509193
:100B20000C014115510541F44DB75EB780910701A5
:100B300090910801481B590B2091A0013091A1010F
:100B4000CA01821B930B8617970780F0AB014E5F9B
:100B50005F4F8417950750F0420F531F5093A10128
:100B60004093A001F9016193719302C0E0E0F0E0CD
:100B7000CF01DF91CF910895CF93DF93009709F4D0
:100B800050C0EC0122971B821A82A091A201B09161
:100B9000A301109709F140E050E0AC17BD0708F140
:100BA000BB83AA83FE0121913191E20FF31FAE179F
:100BB000BF0779F48D919C911197280F391F2E5FF3
:100BC0003F4F3983288312968D919C9113979B8375
:100BD0008A834115510571F4D093A301C093A201FA
:100BE00020C012968D919C911397AD01009711F042
:100BF000DC01D3CFFA01D383C28321913191E20F7B
:100C0000F31FCE17DF0769F488819981280F391FF8
:100C10002E5F3F4FFA01318320838A819B8193832A
:100C20008283DF91CF91089597FB092E07260AD082
:100C300077FD04D049D006D000201AF47095619554
:100C40007F4F0895F6F7909581959F4F0895A1E203
:100C50001A2EAA1BBB1BFD010DC0AA1FBB1FEE1F36
:100C6000FF1FA217B307E407F50720F0A21BB30B81
:100C7000E40BF50B661F771F881F991F1A9469F7FD
:100C800060957095809590959B01AC01BD01CF0159
:100C9000089597FB092E05260ED057FD04D0D7DF07
:100CA0000AD0001C38F450954095309521953F4F5F
:100CB0004F4F5F4F0895F6F7909580957095619529
:100CC0007F4F8F4F9F4F0895AA1BBB1B51E107C059
:100CD000AA1FBB1FA617B70710F0A61BB70B881FCC
:100CE000991F5A95A9F780959095BC01CD0108955B
:100CF000EE0FFF1F0590F491E02D0994F894FFCFBB
:0E0D000000000000B300012000A4010000006C
:00000001FF
